:100000000C942A000C94BC050C9447000C944700F7
:100010000C9447000C9447000C9447000C94470044
:100020000C9447000C9447000C943D050C94470039
:100030000C9447000C9447000C9447000C94470024
:100040000C94E4050C9447000C9447000C94470072
:100050000C94470011241FBECFE5D8E0DEBFCDBF12
:1000600010E0A0E6B0E0EAE4FCE002C005900D92EA
:10007000AC37B107D9F710E0ACE7B0E001C01D9292
:10008000AD37B107E1F70E9423050C9423060C94C9
:100090000000DF93CF93CDB7DEB7A7E2B0E0E7E291
:1000A000F0E08081806C8C93A6E2B0E0E6E2F0E0C4
:1000B000808180628C93A6E2B0E0E6E2F0E080818D
:1000C00088608C93A6E2B0E0E6E2F0E08081866092
:1000D0008C93A0E5B0E0E0E5F0E08081806A8C934D
:1000E000A6E2B0E0E6E2F0E0808180688C93CF91F8
:1000F000DF910895DF93CF9300D00F92CDB7DEB795
:1001000084E290E09B838A83EA81FB8180819181F4
:100110009695879596958795898389810F900F90FD
:100120000F90CF91DF910895DF93CF9300D000D04F
:10013000CDB7DEB789836A838981282F30E03C837D
:100140002B838B819C8181309105D1F02B813C8167
:10015000223031052CF48B819C81009761F01EC008
:100160002B813C812230310581F08B819C81833051
:10017000910581F013C0EAE3F0E08A8180830EC02C
:10018000E7E3F0E08A81808309C0E4E3F0E08A815C
:10019000808304C0E1E3F0E08A8180830F900F90B8
:1001A0000F900F90CF91DF910895DF93CF9300D000
:1001B00000D0CDB7DEB789836A838981282F30E0EC
:1001C0003C832B838B819C8181309105D1F02B81E5
:1001D0003C81223031052CF48B819C81009761F0A9
:1001E0001EC02B813C812230310581F08B819C81A6
:1001F0008330910581F013C0EBE3F0E08A818083C6
:100200000EC0E8E3F0E08A81808309C0E5E3F0E016
:100210008A81808304C0E2E3F0E08A8180830F90CA
:100220000F900F900F90CF91DF910895DF93CF93B0
:1002300000D000D00F92CDB7DEB789836A834B839D
:100240008981282F30E03D832C838C819D818130F2
:10025000910509F447C02C813D81223031052CF4F1
:100260008C819D81009771F0CBC02C813D81223023
:10027000310509F467C08C819D818330910509F4B3
:1002800091C0BEC08B818130A1F4AAE3B0E0EAE363
:10029000F0E08081482F8A81282F30E081E090E0D3
:1002A000022E02C0880F991F0A94E2F7842B8C93C8
:1002B000A7C08B81882309F0A3C0AAE3B0E0EAE3DA
:1002C000F0E08081482F8A81282F30E081E090E0A3
:1002D000022E02C0880F991F0A94E2F780958423AA
:1002E0008C938EC08B818130A1F4A7E3B0E0E7E36B
:1002F000F0E08081482F8A81282F30E081E090E073
:10030000022E02C0880F991F0A94E2F7842B8C9367
:1003100077C08B81882309F073C0A7E3B0E0E7E3DF
:10032000F0E08081482F8A81282F30E081E090E042
:10033000022E02C0880F991F0A94E2F78095842349
:100340008C935EC08B818130A1F4A4E3B0E0E4E340
:10035000F0E08081482F8A81282F30E081E090E012
:10036000022E02C0880F991F0A94E2F7842B8C9307
:1003700047C08B81882309F043C0A4E3B0E0E4E3E5
:10038000F0E08081482F8A81282F30E081E090E0E2
:10039000022E02C0880F991F0A94E2F780958423E9
:1003A0008C932EC08B818130A1F4A1E3B0E0E1E316
:1003B000F0E08081482F8A81282F30E081E090E0B2
:1003C000022E02C0880F991F0A94E2F7842B8C93A7
:1003D00017C08B818823A1F4A1E3B0E0E1E3F0E052
:1003E0008081482F8A81282F30E081E090E0022E22
:1003F00002C0880F991F0A94E2F7809584238C939A
:100400000F900F900F900F900F90CF91DF91089564
:10041000DF93CF9300D000D00F92CDB7DEB78983A2
:100420006A834B838981282F30E03D832C838C8124
:100430009D818130910509F447C02C813D81223096
:1004400031052CF48C819D81009771F0CBC02C81FB
:100450003D812230310509F467C08C819D81833054
:10046000910509F491C0BEC08B818130A1F4ABE34A
:10047000B0E0EBE3F0E08081482F8A81282F30E064
:1004800081E090E0022E02C0880F991F0A94E2F7E3
:10049000842B8C93A7C08B81882309F0A3C0ABE386
:1004A000B0E0EBE3F0E08081482F8A81282F30E034
:1004B00081E090E0022E02C0880F991F0A94E2F7B3
:1004C000809584238C938EC08B818130A1F4A8E326
:1004D000B0E0E8E3F0E08081482F8A81282F30E007
:1004E00081E090E0022E02C0880F991F0A94E2F783
:1004F000842B8C9377C08B81882309F073C0A8E389
:10050000B0E0E8E3F0E08081482F8A81282F30E0D6
:1005100081E090E0022E02C0880F991F0A94E2F752
:10052000809584238C935EC08B818130A1F4A5E3F8
:10053000B0E0E5E3F0E08081482F8A81282F30E0A9
:1005400081E090E0022E02C0880F991F0A94E2F722
:10055000842B8C9347C08B81882309F043C0A5E38B
:10056000B0E0E5E3F0E08081482F8A81282F30E079
:1005700081E090E0022E02C0880F991F0A94E2F7F2
:10058000809584238C932EC08B818130A1F4A2E3CB
:10059000B0E0E2E3F0E08081482F8A81282F30E04C
:1005A00081E090E0022E02C0880F991F0A94E2F7C2
:1005B000842B8C9317C08B818823A1F4A2E3B0E035
:1005C000E2E3F0E08081482F8A81282F30E081E04B
:1005D00090E0022E02C0880F991F0A94E2F78095DE
:1005E00084238C930F900F900F900F900F90CF91CA
:1005F000DF910895DF93CF9300D000D0CDB7DEB761
:100600008A838A81282F30E03C832B838B819C81D5
:1006100081309105D1F02B813C81223031052CF4C1
:100620008B819C81009761F01EC02B813C81223020
:10063000310581F08B819C818330910581F013C05D
:10064000E9E3F0E0808189830EC0E6E3F0E0808199
:10065000898309C0E3E3F0E08081898304C0E0E39B
:10066000F0E08081898389810F900F900F900F9027
:10067000CF91DF910895DF93CF9300D000D00F92F8
:10068000CDB7DEB78A836B8319828A81282F30E049
:100690003D832C834C815D8141305105B1F18C81CA
:1006A0009D818230910534F42C813D8121153105E5
:1006B00071F084C04C815D814230510509F443C022
:1006C0008C819D818330910509F45BC077C0E9E39B
:1006D000F0E08081482F50E08B81282F30E081E0CE
:1006E00090E002C0880F991F2A95E2F79A0128230B
:1006F00039238B81882F90E0A90102C05595479539
:100700008A95E2F7CA01898359C0E6E3F0E0808167
:10071000482F50E08B81282F30E081E090E002C02C
:10072000880F991F2A95E2F79A01282339238B8194
:10073000882F90E0A90102C0559547958A95E2F768
:10074000CA0189833BC0E3E3F0E08081482F50E099
:100750008B81282F30E081E090E002C0880F991F44
:100760002A95E2F79A01282339238B81882F90E07C
:10077000A90102C0559547958A95E2F7CA01898378
:100780001DC0E0E3F0E08081482F50E08B81282FEE
:1007900030E081E090E002C0880F991F2A95E2F7CF
:1007A0009A01282339238B81882F90E0A90102C068
:1007B000559547958A95E2F7CA01898389810F90FB
:1007C0000F900F900F900F90CF91DF910895DF93CE
:1007D000CF93CDB7DEB783E062E040E00E94160120
:1007E00083E062E041E00E940802ABE5B0E0EBE5A7
:1007F000F0E0808180648C93A5E5B0E0E5E5F0E071
:10080000808182608C93CF91DF910895DF93CF93A5
:10081000CDB7DEB7A3E5B0E0E3E5F0E08081886026
:100820008C93A9E5B0E0E9E5F0E0808182608C93EB
:10083000ECE5F0E08AEE8083CF91DF910895DF93BD
:10084000CF9300D0CDB7DEB7AEE4B0E0EEE4F0E099
:10085000808188608C938DE89BE59A838983A9E4E5
:10086000B0E0E9E4F0E0208189819A81892F99271D
:10087000822B8C93A8E4B0E0E8E4F0E090818981D9
:10088000892B8C93ABE4B0E0EBE4F0E0208189812C
:100890009A81892F9927822B8C93AAE4B0E0EAE40D
:1008A000F0E090818981892B8C93AEE4B0E0EEE496
:1008B000F0E0808185608C930F900F90CF91DF9155
:1008C0000895DF93CF9300D0CDB7DEB783E390E0F8
:1008D0009A838983E9E2F0E089818083E0E4F0E0B3
:1008E00089819A81892F99278083AAE2B0E0EAE280
:1008F000F0E0808188618C93A0E4B0E0E0E4F0E077
:10090000808186688C930F900F90CF91DF9108952E
:10091000DF93CF930F92CDB7DEB78983EBE2F0E0A0
:100920008081882F90E0807290700097B9F3ECE29C
:10093000F0E0898180830F90CF91DF910895DF935C
:10094000CF9300D00F92CDB7DEB79B838A831982F5
:100950000EC08981282F30E08A819B81FC01E20F43
:10096000F31F80810E94880489818F5F8983898138
:10097000282F30E08A819B81FC01E20FF31F8081E8
:10098000882339F70F900F900F90CF91DF91089542
:10099000DF93CF93CDB7DEB7EBE2F0E08081882321
:1009A000DCF7ECE2F0E08081CF91DF910895DF93F6
:1009B000CF9300D00F92CDB7DEB78B8381E08A83CF
:1009C0008B81882311F580E30E9488041EC08B81EF
:1009D0009AE0692F0E941706892F89838B819AE0FC
:1009E000692F0E9417068B838A81882F90E09C01D3
:1009F000220F331FC901880F991F880F991F820F7B
:100A0000931F982F8981890F8A838B818823F9F618
:100A100011C08A819AE0692F0E941706892F898365
:100A20008A819AE0692F0E9417068A838981805DF6
:100A30000E9488048A81813061F70F900F900F9097
:100A4000CF91DF910895DF93CF93CDB7DEB780E0EC
:100A500061E041E00E94160180E061E040E00E9418
:100A600008020E94E7030E9461040E9449000E945C
:100A70001F040E9406047894FFCF1F920F920FB6B6
:100A80000F9211242F933F934F935F936F937F9314
:100A90008F939F93AF93BF93EF93FF93DF93CF9386
:100AA00000D0CDB7DEB7A3E5B0E0E3E5F0E08081AC
:100AB000887F8C93AAE5B0E0EAE5F0E0808180646D
:100AC0008C93ABE5B0E0EBE5F0E0808180648C9343
:100AD00083E062E00E943B038823C9F580917C009B
:100AE0008F5F80937C0080917C00282F30E03A83D8
:100AF000298389819A818130910531F029813A8158
:100B00002230310591F023C0ABE3B0E0EBE3F0E03D
:100B1000908182E089278C9380E690E00E949F0478
:100B200089E690E00E949F0412C0ABE3B0E0EBE3E3
:100B3000F0E0908182E089278C9380E690E00E942B
:100B40009F0482E790E00E949F0410927C000F9027
:100B50000F90CF91DF91FF91EF91BF91AF919F9156
:100B60008F917F916F915F914F913F912F910F9056
:100B70000FBE0F901F9018951F920F920FB60F92F5
:100B800011248F93AF93BF93EF93FF93DF93CF9392
:100B9000CDB7DEB7ABE5B0E0EBE5F0E080818F7B71
:100BA0008C93A3E5B0E0E3E5F0E0808185608C9371
:100BB000CF91DF91FF91EF91BF91AF918F910F9006
:100BC0000FBE0F901F9018951F920F920FB60F92A5
:100BD00011242F933F934F935F936F937F938F9342
:100BE0009F93AF93BF93EF93FF93DF93CF93CDB7D3
:100BF000DEB7A8E5B0E0E8E5F0E0808188608C939E
:100C00000E947A000E94D704CF91DF91FF91EF916B
:100C1000BF91AF919F918F917F916F915F914F9114
:100C20003F912F910F900FBE0F901F901895991B19
:100C300079E004C0991F961708F0961B881F7A95D3
:0A0C4000C9F780950895F894FFCFDE
:100C4A00505245535345442000284C4544204F4EAA
:0C0C5A002900284C4544204F4646290044
:00000001FF
